{
  "contractName": "EscrowFactory",
  "abi": [
    {
      "inputs": [],
      "name": "buyer",
      "outputs": [
        {
          "internalType": "address payable",
          "name": "",
          "type": "address"
        }
      ],
      "stateMutability": "view",
      "type": "function",
      "constant": true
    },
    {
      "inputs": [],
      "name": "createEscrow",
      "outputs": [],
      "stateMutability": "nonpayable",
      "type": "function"
    },
    {
      "inputs": [
        {
          "internalType": "uint256",
          "name": "_index",
          "type": "uint256"
        },
        {
          "internalType": "address payable",
          "name": "_commissionWallet",
          "type": "address"
        },
        {
          "internalType": "uint256",
          "name": "_minimumEscrowAmount",
          "type": "uint256"
        },
        {
          "internalType": "uint256",
          "name": "_commission",
          "type": "uint256"
        }
      ],
      "name": "initializer",
      "outputs": [],
      "stateMutability": "nonpayable",
      "type": "function"
    },
    {
      "inputs": [
        {
          "internalType": "uint256",
          "name": "_index",
          "type": "uint256"
        },
        {
          "internalType": "address payable",
          "name": "_buyer",
          "type": "address"
        },
        {
          "internalType": "address payable",
          "name": "_seller",
          "type": "address"
        }
      ],
      "name": "escrowParties",
      "outputs": [],
      "stateMutability": "nonpayable",
      "type": "function"
    },
    {
      "inputs": [
        {
          "internalType": "uint256",
          "name": "_index",
          "type": "uint256"
        }
      ],
      "name": "buyerdeposits",
      "outputs": [],
      "stateMutability": "payable",
      "type": "function",
      "payable": true
    },
    {
      "inputs": [
        {
          "internalType": "uint256",
          "name": "_index",
          "type": "uint256"
        }
      ],
      "name": "sellerAccepts",
      "outputs": [],
      "stateMutability": "payable",
      "type": "function",
      "payable": true
    },
    {
      "inputs": [
        {
          "internalType": "uint256",
          "name": "_index",
          "type": "uint256"
        }
      ],
      "name": "someoneReleases",
      "outputs": [],
      "stateMutability": "payable",
      "type": "function",
      "payable": true
    },
    {
      "inputs": [
        {
          "internalType": "uint256",
          "name": "_index",
          "type": "uint256"
        }
      ],
      "name": "getCurrState",
      "outputs": [],
      "stateMutability": "payable",
      "type": "function",
      "payable": true
    },
    {
      "inputs": [
        {
          "internalType": "uint256",
          "name": "_index",
          "type": "uint256"
        },
        {
          "internalType": "uint256",
          "name": "comm_rate",
          "type": "uint256"
        }
      ],
      "name": "commissionChange",
      "outputs": [],
      "stateMutability": "payable",
      "type": "function",
      "payable": true
    },
    {
      "inputs": [
        {
          "internalType": "uint256",
          "name": "_index",
          "type": "uint256"
        }
      ],
      "name": "getCommRate",
      "outputs": [],
      "stateMutability": "payable",
      "type": "function",
      "payable": true
    },
    {
      "inputs": [
        {
          "internalType": "uint256",
          "name": "_index",
          "type": "uint256"
        },
        {
          "internalType": "address payable",
          "name": "ownerAccount",
          "type": "address"
        }
      ],
      "name": "after6Months",
      "outputs": [],
      "stateMutability": "payable",
      "type": "function",
      "payable": true
    }
  ],
  "bytecode": "0x608060405234801561001057600080fd5b506134b3806100206000396000f3fe60806040526004361061009c5760003560e01c806366542d581161006457806366542d5814610128578063677e5d10146101515780637150d8ae1461016d5780638ef59d231461019857806397e40921146101c1578063c618af2e146101dd5761009c565b806316316235146100a15780632b653d24146100bd57806352ef7426146100d9578063560a8d62146100f5578063598eec631461010c575b600080fd5b6100bb60048036038101906100b69190610d62565b6101f9565b005b6100d760048036038101906100d29190610da2565b610337565b005b6100f360048036038101906100ee9190610da2565b610469565b005b34801561010157600080fd5b5061010a61059b565b005b61012660048036038101906101219190610e2d565b61062e565b005b34801561013457600080fd5b5061014f600480360381019061014a9190610e6d565b61076c565b005b61016b60048036038101906101669190610da2565b6108ad565b005b34801561017957600080fd5b506101826109df565b60405161018f9190610ecf565b60405180910390f35b3480156101a457600080fd5b506101bf60048036038101906101ba9190610eea565b610a03565b005b6101db60048036038101906101d69190610da2565b610ab6565b005b6101f760048036038101906101f29190610da2565b610be8565b005b600080600184815481106102105761020f610f51565b5b9060005260206000200160009054906101000a900473ffffffffffffffffffffffffffffffffffffffff1673ffffffffffffffffffffffffffffffffffffffff16836040516024016102629190610f8f565b6040516020818303038152906040527ff4b37864000000000000000000000000000000000000000000000000000000007bffffffffffffffffffffffffffffffffffffffffffffffffffffffff19166020820180517bffffffffffffffffffffffffffffffffffffffffffffffffffffffff83818316178352505050506040516102ec919061101b565b600060405180830381855af49150503d8060008114610327576040519150601f19603f3d011682016040523d82523d6000602084013e61032c565b606091505b509150915050505050565b6000806001838154811061034e5761034d610f51565b5b9060005260206000200160009054906101000a900473ffffffffffffffffffffffffffffffffffffffff1673ffffffffffffffffffffffffffffffffffffffff166040516024016040516020818303038152906040527fae87bee0000000000000000000000000000000000000000000000000000000007bffffffffffffffffffffffffffffffffffffffffffffffffffffffff19166020820180517bffffffffffffffffffffffffffffffffffffffffffffffffffffffff838183161783525050505060405161041f919061101b565b600060405180830381855af49150503d806000811461045a576040519150601f19603f3d011682016040523d82523d6000602084013e61045f565b606091505b5091509150505050565b600080600183815481106104805761047f610f51565b5b9060005260206000200160009054906101000a900473ffffffffffffffffffffffffffffffffffffffff1673ffffffffffffffffffffffffffffffffffffffff166040516024016040516020818303038152906040527f48c73f68000000000000000000000000000000000000000000000000000000007bffffffffffffffffffffffffffffffffffffffffffffffffffffffff19166020820180517bffffffffffffffffffffffffffffffffffffffffffffffffffffffff8381831617835250505050604051610551919061101b565b600060405180830381855af49150503d806000811461058c576040519150601f19603f3d011682016040523d82523d6000602084013e610591565b606091505b5091509150505050565b60006040516105a990610d1a565b604051809103906000f0801580156105c5573d6000803e3d6000fd5b5090506001819080600181540180825580915050600190039060005260206000200160009091909190916101000a81548173ffffffffffffffffffffffffffffffffffffffff021916908373ffffffffffffffffffffffffffffffffffffffff16021790555050565b6000806001848154811061064557610644610f51565b5b9060005260206000200160009054906101000a900473ffffffffffffffffffffffffffffffffffffffff1673ffffffffffffffffffffffffffffffffffffffff16836040516024016106979190610ecf565b6040516020818303038152906040527f0432d783000000000000000000000000000000000000000000000000000000007bffffffffffffffffffffffffffffffffffffffffffffffffffffffff19166020820180517bffffffffffffffffffffffffffffffffffffffffffffffffffffffff8381831617835250505050604051610721919061101b565b600060405180830381855af49150503d806000811461075c576040519150601f19603f3d011682016040523d82523d6000602084013e610761565b606091505b509150915050505050565b6000806001858154811061078357610782610f51565b5b9060005260206000200160009054906101000a900473ffffffffffffffffffffffffffffffffffffffff1673ffffffffffffffffffffffffffffffffffffffff1684846040516024016107d7929190611032565b6040516020818303038152906040527fb51f5704000000000000000000000000000000000000000000000000000000007bffffffffffffffffffffffffffffffffffffffffffffffffffffffff19166020820180517bffffffffffffffffffffffffffffffffffffffffffffffffffffffff8381831617835250505050604051610861919061101b565b600060405180830381855af49150503d806000811461089c576040519150601f19603f3d011682016040523d82523d6000602084013e6108a1565b606091505b50915091505050505050565b600080600183815481106108c4576108c3610f51565b5b9060005260206000200160009054906101000a900473ffffffffffffffffffffffffffffffffffffffff1673ffffffffffffffffffffffffffffffffffffffff166040516024016040516020818303038152906040527f6fac9e08000000000000000000000000000000000000000000000000000000007bffffffffffffffffffffffffffffffffffffffffffffffffffffffff19166020820180517bffffffffffffffffffffffffffffffffffffffffffffffffffffffff8381831617835250505050604051610995919061101b565b600060405180830381855af49150503d80600081146109d0576040519150601f19603f3d011682016040523d82523d6000602084013e6109d5565b606091505b5091509150505050565b60008054906101000a900473ffffffffffffffffffffffffffffffffffffffff1681565b60018481548110610a1757610a16610f51565b5b9060005260206000200160009054906101000a900473ffffffffffffffffffffffffffffffffffffffff1673ffffffffffffffffffffffffffffffffffffffff1663225f3c4f8484846040518463ffffffff1660e01b8152600401610a7e9392919061105b565b600060405180830381600087803b158015610a9857600080fd5b505af1158015610aac573d6000803e3d6000fd5b5050505050505050565b60008060018381548110610acd57610acc610f51565b5b9060005260206000200160009054906101000a900473ffffffffffffffffffffffffffffffffffffffff1673ffffffffffffffffffffffffffffffffffffffff166040516024016040516020818303038152906040527fe0c8ec00000000000000000000000000000000000000000000000000000000007bffffffffffffffffffffffffffffffffffffffffffffffffffffffff19166020820180517bffffffffffffffffffffffffffffffffffffffffffffffffffffffff8381831617835250505050604051610b9e919061101b565b600060405180830381855af49150503d8060008114610bd9576040519150601f19603f3d011682016040523d82523d6000602084013e610bde565b606091505b5091509150505050565b60008060018381548110610bff57610bfe610f51565b5b9060005260206000200160009054906101000a900473ffffffffffffffffffffffffffffffffffffffff1673ffffffffffffffffffffffffffffffffffffffff166040516024016040516020818303038152906040527f05ca16aa000000000000000000000000000000000000000000000000000000007bffffffffffffffffffffffffffffffffffffffffffffffffffffffff19166020820180517bffffffffffffffffffffffffffffffffffffffffffffffffffffffff8381831617835250505050604051610cd0919061101b565b600060405180830381855af49150503d8060008114610d0b576040519150601f19603f3d011682016040523d82523d6000602084013e610d10565b606091505b5091509150505050565b6123eb8061109383390190565b600080fd5b6000819050919050565b610d3f81610d2c565b8114610d4a57600080fd5b50565b600081359050610d5c81610d36565b92915050565b60008060408385031215610d7957610d78610d27565b5b6000610d8785828601610d4d565b9250506020610d9885828601610d4d565b9150509250929050565b600060208284031215610db857610db7610d27565b5b6000610dc684828501610d4d565b91505092915050565b600073ffffffffffffffffffffffffffffffffffffffff82169050919050565b6000610dfa82610dcf565b9050919050565b610e0a81610def565b8114610e1557600080fd5b50565b600081359050610e2781610e01565b92915050565b60008060408385031215610e4457610e43610d27565b5b6000610e5285828601610d4d565b9250506020610e6385828601610e18565b9150509250929050565b600080600060608486031215610e8657610e85610d27565b5b6000610e9486828701610d4d565b9350506020610ea586828701610e18565b9250506040610eb686828701610e18565b9150509250925092565b610ec981610def565b82525050565b6000602082019050610ee46000830184610ec0565b92915050565b60008060008060808587031215610f0457610f03610d27565b5b6000610f1287828801610d4d565b9450506020610f2387828801610e18565b9350506040610f3487828801610d4d565b9250506060610f4587828801610d4d565b91505092959194509250565b7f4e487b7100000000000000000000000000000000000000000000000000000000600052603260045260246000fd5b610f8981610d2c565b82525050565b6000602082019050610fa46000830184610f80565b92915050565b600081519050919050565b600081905092915050565b60005b83811015610fde578082015181840152602081019050610fc3565b60008484015250505050565b6000610ff582610faa565b610fff8185610fb5565b935061100f818560208601610fc0565b80840191505092915050565b60006110278284610fea565b915081905092915050565b60006040820190506110476000830185610ec0565b6110546020830184610ec0565b9392505050565b60006060820190506110706000830186610ec0565b61107d6020830185610f80565b61108a6040830184610f80565b94935050505056fe608060405234801561001057600080fd5b506123cb806100206000396000f3fe6080604052600436106100fe5760003560e01c80636642642a11610095578063afe0104311610064578063afe01043146102c5578063bb6d07b4146102f0578063d0e30db01461030c578063e148919114610316578063e65d6b4914610341576100fe565b80636642642a146102435780637150d8ae1461026c5780639f123ec114610297578063a2ff5539146102ae576100fe565b8063225f3c4f116100d1578063225f3c4f146101ad578063378aa701146101d6578063590e1ae3146102015780635e8a626e14610218576100fe565b806308551a5314610103578063117803e31461012e5780631cc1c450146101595780631d01364c14610182575b600080fd5b34801561010f57600080fd5b5061011861036c565b60405161012591906117d7565b60405180910390f35b34801561013a57600080fd5b50610143610392565b6040516101509190611813565b60405180910390f35b34801561016557600080fd5b50610180600480360381019061017b919061185f565b6103b8565b005b34801561018e57600080fd5b506101976106aa565b6040516101a491906118b8565b60405180910390f35b3480156101b957600080fd5b506101d460048036038101906101cf91906118ff565b6106b0565b005b3480156101e257600080fd5b506101eb610832565b6040516101f891906119c9565b60405180910390f35b34801561020d57600080fd5b50610216610849565b005b34801561022457600080fd5b5061022d610a9d565b60405161023a91906118b8565b60405180910390f35b34801561024f57600080fd5b5061026a600480360381019061026591906119e4565b610aa3565b005b34801561027857600080fd5b50610281610c1e565b60405161028e91906117d7565b60405180910390f35b3480156102a357600080fd5b506102ac610c44565b005b3480156102ba57600080fd5b506102c3610dd5565b005b3480156102d157600080fd5b506102da6111e7565b6040516102e791906119c9565b60405180910390f35b61030a60048036038101906103059190611a11565b6111fa565b005b61031461154b565b005b34801561032257600080fd5b5061032b611786565b60405161033891906118b8565b60405180910390f35b34801561034d57600080fd5b5061035661178c565b60405161036391906118b8565b60405180910390f35b600460009054906101000a900473ffffffffffffffffffffffffffffffffffffffff1681565b600260009054906101000a900473ffffffffffffffffffffffffffffffffffffffff1681565b600073ffffffffffffffffffffffffffffffffffffffff16600260009054906101000a900473ffffffffffffffffffffffffffffffffffffffff1673ffffffffffffffffffffffffffffffffffffffff1603610449576040517f08c379a000000000000000000000000000000000000000000000000000000000815260040161044090611ac1565b60405180910390fd5b8160008173ffffffffffffffffffffffffffffffffffffffff163b146104a4576040517f08c379a000000000000000000000000000000000000000000000000000000000815260040161049b90611b2d565b60405180910390fd5b8160008173ffffffffffffffffffffffffffffffffffffffff163b146104ff576040517f08c379a00000000000000000000000000000000000000000000000000000000081526004016104f690611b2d565b60405180910390fd5b8273ffffffffffffffffffffffffffffffffffffffff168473ffffffffffffffffffffffffffffffffffffffff16141580156105895750600560009054906101000a900473ffffffffffffffffffffffffffffffffffffffff1673ffffffffffffffffffffffffffffffffffffffff168473ffffffffffffffffffffffffffffffffffffffff1614155b80156105e35750600560009054906101000a900473ffffffffffffffffffffffffffffffffffffffff1673ffffffffffffffffffffffffffffffffffffffff168373ffffffffffffffffffffffffffffffffffffffff1614155b610622576040517f08c379a000000000000000000000000000000000000000000000000000000000815260040161061990611be5565b60405180910390fd5b83600360006101000a81548173ffffffffffffffffffffffffffffffffffffffff021916908373ffffffffffffffffffffffffffffffffffffffff16021790555082600460006101000a81548173ffffffffffffffffffffffffffffffffffffffff021916908373ffffffffffffffffffffffffffffffffffffffff16021790555050505050565b60085481565b8260008173ffffffffffffffffffffffffffffffffffffffff163b1461070b576040517f08c379a000000000000000000000000000000000000000000000000000000000815260040161070290611b2d565b60405180910390fd5b600073ffffffffffffffffffffffffffffffffffffffff16600260009054906101000a900473ffffffffffffffffffffffffffffffffffffffff1673ffffffffffffffffffffffffffffffffffffffff161461079c576040517f08c379a000000000000000000000000000000000000000000000000000000000815260040161079390611c77565b60405180910390fd5b83600560006101000a81548173ffffffffffffffffffffffffffffffffffffffff021916908373ffffffffffffffffffffffffffffffffffffffff160217905550826000819055508160018190555033600260006101000a81548173ffffffffffffffffffffffffffffffffffffffff021916908373ffffffffffffffffffffffffffffffffffffffff16021790555050505050565b6000600760009054906101000a900460ff16905090565b6001600581111561085d5761085c611952565b5b600760009054906101000a900460ff16600581111561087f5761087e611952565b5b146108bf576040517f08c379a00000000000000000000000000000000000000000000000000000000081526004016108b690611ce3565b60405180910390fd5b600360009054906101000a900473ffffffffffffffffffffffffffffffffffffffff1673ffffffffffffffffffffffffffffffffffffffff163373ffffffffffffffffffffffffffffffffffffffff161461094f576040517f08c379a000000000000000000000000000000000000000000000000000000000815260040161094690611d4f565b60405180910390fd5b600060646001546008546109639190611d9e565b61096d9190611e0f565b60085461097a9190611e40565b9050600060646001546008546109909190611d9e565b61099a9190611e0f565b9050600360009054906101000a900473ffffffffffffffffffffffffffffffffffffffff1673ffffffffffffffffffffffffffffffffffffffff166108fc839081150290604051600060405180830381858888f19350505050158015610a04573d6000803e3d6000fd5b50600560009054906101000a900473ffffffffffffffffffffffffffffffffffffffff1673ffffffffffffffffffffffffffffffffffffffff166108fc829081150290604051600060405180830381858888f19350505050158015610a6d573d6000803e3d6000fd5b506004600760006101000a81548160ff02191690836005811115610a9457610a93611952565b5b02179055505050565b60095481565b600073ffffffffffffffffffffffffffffffffffffffff16600260009054906101000a900473ffffffffffffffffffffffffffffffffffffffff1673ffffffffffffffffffffffffffffffffffffffff1603610b34576040517f08c379a0000000000000000000000000000000000000000000000000000000008152600401610b2b90611ac1565b60405180910390fd5b3373ffffffffffffffffffffffffffffffffffffffff16600260009054906101000a900473ffffffffffffffffffffffffffffffffffffffff1673ffffffffffffffffffffffffffffffffffffffff1614610bc4576040517f08c379a0000000000000000000000000000000000000000000000000000000008152600401610bbb90611ee6565b60405180910390fd5b60648111158015610bd55750600081115b610c14576040517f08c379a0000000000000000000000000000000000000000000000000000000008152600401610c0b90611f78565b60405180910390fd5b8060018190555050565b600360009054906101000a900473ffffffffffffffffffffffffffffffffffffffff1681565b60016005811115610c5857610c57611952565b5b600760009054906101000a900460ff166005811115610c7a57610c79611952565b5b14610cba576040517f08c379a0000000000000000000000000000000000000000000000000000000008152600401610cb190611ce3565b60405180910390fd5b600460009054906101000a900473ffffffffffffffffffffffffffffffffffffffff1673ffffffffffffffffffffffffffffffffffffffff163373ffffffffffffffffffffffffffffffffffffffff1614610d4a576040517f08c379a0000000000000000000000000000000000000000000000000000000008152600401610d4190611fe4565b60405180910390fd5b6002600760006101000a81548160ff02191690836005811115610d7057610d6f611952565b5b02179055507f256753117785cccff5787996ea7646b712ff88358432c84fdf3f5a8e75f8e1b7600360009054906101000a900473ffffffffffffffffffffffffffffffffffffffff16336002604051610dcb93929190612063565b60405180910390a1565b600360009054906101000a900473ffffffffffffffffffffffffffffffffffffffff1673ffffffffffffffffffffffffffffffffffffffff163373ffffffffffffffffffffffffffffffffffffffff161480610e7e5750600460009054906101000a900473ffffffffffffffffffffffffffffffffffffffff1673ffffffffffffffffffffffffffffffffffffffff163373ffffffffffffffffffffffffffffffffffffffff16145b610e8757600080fd5b60026005811115610e9b57610e9a611952565b5b600760009054906101000a900460ff166005811115610ebd57610ebc611952565b5b14610efd576040517f08c379a0000000000000000000000000000000000000000000000000000000008152600401610ef49061210c565b60405180910390fd5b60006064600154600854610f119190611d9e565b610f1b9190611e0f565b600854610f289190611e40565b905060006064600154600854610f3e9190611d9e565b610f489190611e0f565b9050600360009054906101000a900473ffffffffffffffffffffffffffffffffffffffff1673ffffffffffffffffffffffffffffffffffffffff163373ffffffffffffffffffffffffffffffffffffffff160361100d57600460009054906101000a900473ffffffffffffffffffffffffffffffffffffffff1673ffffffffffffffffffffffffffffffffffffffff166108fc839081150290604051600060405180830381858888f19350505050158015611007573d6000803e3d6000fd5b506110cd565b600460009054906101000a900473ffffffffffffffffffffffffffffffffffffffff1673ffffffffffffffffffffffffffffffffffffffff163373ffffffffffffffffffffffffffffffffffffffff16036110cc57600360009054906101000a900473ffffffffffffffffffffffffffffffffffffffff1673ffffffffffffffffffffffffffffffffffffffff166108fc839081150290604051600060405180830381858888f193505050501580156110ca573d6000803e3d6000fd5b505b5b600560009054906101000a900473ffffffffffffffffffffffffffffffffffffffff1673ffffffffffffffffffffffffffffffffffffffff166108fc829081150290604051600060405180830381858888f19350505050158015611135573d6000803e3d6000fd5b506003600760006101000a81548160ff0219169083600581111561115c5761115b611952565b5b02179055507f52a425e2be1df634499a25dae0dc59f7121b8a26b7107ee4ec864e7908a1c19d600360009054906101000a900473ffffffffffffffffffffffffffffffffffffffff16600460009054906101000a900473ffffffffffffffffffffffffffffffffffffffff166003856040516111db949392919061212c565b60405180910390a15050565b600760009054906101000a900460ff1681565b600073ffffffffffffffffffffffffffffffffffffffff16600260009054906101000a900473ffffffffffffffffffffffffffffffffffffffff1673ffffffffffffffffffffffffffffffffffffffff160361128b576040517f08c379a000000000000000000000000000000000000000000000000000000000815260040161128290611ac1565b60405180910390fd5b6002600581111561129f5761129e611952565b5b600760009054906101000a900460ff1660058111156112c1576112c0611952565b5b14611301576040517f08c379a00000000000000000000000000000000000000000000000000000000081526004016112f89061210c565b60405180910390fd5b3373ffffffffffffffffffffffffffffffffffffffff16600260009054906101000a900473ffffffffffffffffffffffffffffffffffffffff1673ffffffffffffffffffffffffffffffffffffffff1614611391576040517f08c379a000000000000000000000000000000000000000000000000000000000815260040161138890611ee6565b60405180910390fd5b3360008173ffffffffffffffffffffffffffffffffffffffff163b146113ec576040517f08c379a00000000000000000000000000000000000000000000000000000000081526004016113e390611b2d565b60405180910390fd5b8160008173ffffffffffffffffffffffffffffffffffffffff163b14611447576040517f08c379a000000000000000000000000000000000000000000000000000000000815260040161143e90611b2d565b60405180910390fd5b62eff100600954426114599190611e40565b11611499576040517f08c379a0000000000000000000000000000000000000000000000000000000008152600401611490906121e3565b60405180910390fd5b8273ffffffffffffffffffffffffffffffffffffffff166108fc479081150290604051600060405180830381858888f193505050501580156114df573d6000803e3d6000fd5b506005600760006101000a81548160ff0219169083600581111561150657611505611952565b5b02179055507f588f68fd41ec70abdc64718b0fcb715c772bb1114f6f2f8a606429973521022933843460405161153e93929190612203565b60405180910390a1505050565b600073ffffffffffffffffffffffffffffffffffffffff16600360009054906101000a900473ffffffffffffffffffffffffffffffffffffffff1673ffffffffffffffffffffffffffffffffffffffff16141580156115f95750600073ffffffffffffffffffffffffffffffffffffffff16600460009054906101000a900473ffffffffffffffffffffffffffffffffffffffff1673ffffffffffffffffffffffffffffffffffffffff1614155b611638576040517f08c379a000000000000000000000000000000000000000000000000000000000815260040161162f906122ac565b60405180910390fd5b60005434101561167d576040517f08c379a00000000000000000000000000000000000000000000000000000000081526004016116749061233e565b60405180910390fd5b600360009054906101000a900473ffffffffffffffffffffffffffffffffffffffff1673ffffffffffffffffffffffffffffffffffffffff163373ffffffffffffffffffffffffffffffffffffffff161461170d576040517f08c379a000000000000000000000000000000000000000000000000000000000815260040161170490611d4f565b60405180910390fd5b6001600760006101000a81548160ff0219169083600581111561173357611732611952565b5b0217905550346008819055507fe4fcf2b6cb277fd548df0434b5f8e8122d094df9b61978815ac64ead0d4500ff3360085460016040516117759392919061235e565b60405180910390a142600981905550565b60015481565b6000600154905090565b600073ffffffffffffffffffffffffffffffffffffffff82169050919050565b60006117c182611796565b9050919050565b6117d1816117b6565b82525050565b60006020820190506117ec60008301846117c8565b92915050565b60006117fd82611796565b9050919050565b61180d816117f2565b82525050565b60006020820190506118286000830184611804565b92915050565b600080fd5b61183c816117b6565b811461184757600080fd5b50565b60008135905061185981611833565b92915050565b600080604083850312156118765761187561182e565b5b60006118848582860161184a565b92505060206118958582860161184a565b9150509250929050565b6000819050919050565b6118b28161189f565b82525050565b60006020820190506118cd60008301846118a9565b92915050565b6118dc8161189f565b81146118e757600080fd5b50565b6000813590506118f9816118d3565b92915050565b6000806000606084860312156119185761191761182e565b5b60006119268682870161184a565b9350506020611937868287016118ea565b9250506040611948868287016118ea565b9150509250925092565b7f4e487b7100000000000000000000000000000000000000000000000000000000600052602160045260246000fd5b6006811061199257611991611952565b5b50565b60008190506119a382611981565b919050565b60006119b382611995565b9050919050565b6119c3816119a8565b82525050565b60006020820190506119de60008301846119ba565b92915050565b6000602082840312156119fa576119f961182e565b5b6000611a08848285016118ea565b91505092915050565b600060208284031215611a2757611a2661182e565b5b6000611a358482850161184a565b91505092915050565b600082825260208201905092915050565b7f546865206465616c20686173206e6f74206265656e20696e697469616c69736560008201527f6420627920746865206f776e6572207965740000000000000000000000000000602082015250565b6000611aab603283611a3e565b9150611ab682611a4f565b604082019050919050565b60006020820190508181036000830152611ada81611a9e565b9050919050565b7f5468652077616c6c65742061646472657373206973206e6f742076616c696400600082015250565b6000611b17601f83611a3e565b9150611b2282611ae1565b602082019050919050565b60006020820190508181036000830152611b4681611b0a565b9050919050565b7f54686520627579657220616e642073656c6c65722077616c6c65742063616e6e60008201527f6f742062652073616d65206f7220657175616c20746f2074686520636f6d6d6960208201527f7373696f6e2077616c6c65740000000000000000000000000000000000000000604082015250565b6000611bcf604c83611a3e565b9150611bda82611b4d565b606082019050919050565b60006020820190508181036000830152611bfe81611bc2565b9050919050565b7f596f752063616e6e6f7420696e697469616c697a652061206465616c2074776960008201527f6365210000000000000000000000000000000000000000000000000000000000602082015250565b6000611c61602383611a3e565b9150611c6c82611c05565b604082019050919050565b60006020820190508181036000830152611c9081611c54565b9050919050565b7f457363726f7720686173206e6f74206265656e2066756e646564207965740000600082015250565b6000611ccd601e83611a3e565b9150611cd882611c97565b602082019050919050565b60006020820190508181036000830152611cfc81611cc0565b9050919050565b7f4f6e6c792062757965722063616e2063616c6c2074686973206d6574686f6400600082015250565b6000611d39601f83611a3e565b9150611d4482611d03565b602082019050919050565b60006020820190508181036000830152611d6881611d2c565b9050919050565b7f4e487b7100000000000000000000000000000000000000000000000000000000600052601160045260246000fd5b6000611da98261189f565b9150611db48361189f565b9250828202611dc28161189f565b91508282048414831517611dd957611dd8611d6f565b5b5092915050565b7f4e487b7100000000000000000000000000000000000000000000000000000000600052601260045260246000fd5b6000611e1a8261189f565b9150611e258361189f565b925082611e3557611e34611de0565b5b828204905092915050565b6000611e4b8261189f565b9150611e568361189f565b9250828203905081811115611e6e57611e6d611d6f565b5b92915050565b7f4f6e6c7920636f6e7472616374206f776e65722063616e2063616c6c2074686960008201527f73206d6574686f64210000000000000000000000000000000000000000000000602082015250565b6000611ed0602983611a3e565b9150611edb82611e74565b604082019050919050565b60006020820190508181036000830152611eff81611ec3565b9050919050565b7f636f6d6d697373696f6e20726174652063616e6e6f74206265206d6f7265207460008201527f68616e2031303000000000000000000000000000000000000000000000000000602082015250565b6000611f62602783611a3e565b9150611f6d82611f06565b604082019050919050565b60006020820190508181036000830152611f9181611f55565b9050919050565b7f4f6e6c792053656c6c65722063616e2063616c6c2074686973206d6574686f64600082015250565b6000611fce602083611a3e565b9150611fd982611f98565b602082019050919050565b60006020820190508181036000830152611ffd81611fc1565b9050919050565b6000819050919050565b600061202961202461201f84611796565b612004565b611796565b9050919050565b600061203b8261200e565b9050919050565b600061204d82612030565b9050919050565b61205d81612042565b82525050565b60006060820190506120786000830186612054565b6120856020830185611804565b61209260408301846119ba565b949350505050565b7f53656c6c657220686173206e6f7420616363657074656420746865206465616c60008201527f2079657400000000000000000000000000000000000000000000000000000000602082015250565b60006120f6602483611a3e565b91506121018261209a565b604082019050919050565b60006020820190508181036000830152612125816120e9565b9050919050565b60006080820190506121416000830187612054565b61214e6020830186612054565b61215b60408301856119ba565b61216860608301846118a9565b95945050505050565b7f546865206d6f6e65792063616e206f6e6c792062652077697468647261776e2060008201527f61667465722036206d6f6e746873000000000000000000000000000000000000602082015250565b60006121cd602e83611a3e565b91506121d882612171565b604082019050919050565b600060208201905081810360008301526121fc816121c0565b9050919050565b60006060820190506122186000830186611804565b6122256020830185612054565b61223260408301846118a9565b949350505050565b7f546865206465616c20686173206e6f74206265656e20696e697469616c69736560008201527f6420796574210000000000000000000000000000000000000000000000000000602082015250565b6000612296602683611a3e565b91506122a18261223a565b604082019050919050565b600060208201905081810360008301526122c581612289565b9050919050565b7f4d696e696d756d20616d6f756e7420746f20657363726f7720697320302e303060008201527f3120424e42000000000000000000000000000000000000000000000000000000602082015250565b6000612328602583611a3e565b9150612333826122cc565b604082019050919050565b600060208201905081810360008301526123578161231b565b9050919050565b60006060820190506123736000830186611804565b61238060208301856118a9565b61238d60408301846119ba565b94935050505056fea2646970667358221220f23c394855dd0ec2d462f1b0a19fca98dd7858622729d70c50ce1c16fb4bf7fb64736f6c63430008110033a26469706673582212201d18853949e9de9ef932a45a27bd371278214665245cae17a3c76d9cfcb6abd764736f6c63430008110033",
  "immutableReferences": {},
  "source": "// SPDX-License-Identifier: MIT\npragma solidity >0.4.23 <0.9.0;\n\nimport \"./Escrow.sol\";\n\ncontract EscrowFactory {\n    address payable public buyer;\n    Escrow[] private _escrowsArray;\n\n    function createEscrow() public {\n        Escrow escrow = new Escrow();\n        _escrowsArray.push(escrow);\n    }\n\n    function initializer(\n        uint256 _index,\n        address payable _commissionWallet,\n        uint256 _minimumEscrowAmount,\n        uint256 _commission\n    ) public {\n        Escrow(address(_escrowsArray[_index])).initialiser(\n            _commissionWallet,\n            _minimumEscrowAmount,\n            _commission\n        );\n    }\n\n    function escrowParties(\n        uint256 _index,\n        address payable _buyer,\n        address payable _seller\n    ) public {\n        (bool success, bytes memory data) = address(_escrowsArray[_index])\n            .delegatecall(\n                abi.encodeWithSignature(\"escrowParties\", _buyer, _seller)\n            );\n    }\n\n    function buyerdeposits(uint256 _index) public payable {\n        (bool success, bytes memory data) = address(_escrowsArray[_index])\n            .delegatecall(abi.encodeWithSignature(\"deposit\"));\n    }\n\n    function sellerAccepts(uint256 _index) public payable {\n        (bool success, bytes memory data) = address(_escrowsArray[_index])\n            .delegatecall(abi.encodeWithSignature(\"acceptDeal\"));\n    }\n\n    function someoneReleases(uint256 _index) public payable {\n        (bool success, bytes memory data) = address(_escrowsArray[_index])\n            .delegatecall(abi.encodeWithSignature(\"releaseFund\"));\n    }\n\n    function getCurrState(uint256 _index) public payable {\n        (bool success, bytes memory data) = address(_escrowsArray[_index])\n            .delegatecall(abi.encodeWithSignature(\"getCurrentState\"));\n    }\n\n    function commissionChange(uint256 _index, uint256 comm_rate)\n        public\n        payable\n    {\n        (bool success, bytes memory data) = address(_escrowsArray[_index])\n            .delegatecall(\n                abi.encodeWithSignature(\"changeCommissionRate\", comm_rate)\n            );\n    }\n\n    function getCommRate(uint256 _index) public payable {\n        (bool success, bytes memory data) = address(_escrowsArray[_index])\n            .delegatecall(abi.encodeWithSignature(\"getCommission\"));\n    }\n\n    function after6Months(uint256 _index, address payable ownerAccount)\n        public\n        payable\n    {\n        (bool success, bytes memory data) = address(_escrowsArray[_index])\n            .delegatecall(\n                abi.encodeWithSignature(\"itsbeen6Months\", ownerAccount)\n            );\n    }\n}\n",
  "sourcePath": "/Users/shivisharma/Desktop/smartcontracts/contracts/factory.sol",
  "compiler": {
    "name": "solc",
    "version": "0.8.17+commit.8df45f5f.Emscripten.clang"
  },
  "schemaVersion": "3.4.9",
  "updatedAt": "2022-09-16T09:10:08.841Z",
  "networkType": "ethereum",
  "devdoc": {
    "kind": "dev",
    "methods": {},
    "version": 1
  },
  "userdoc": {
    "kind": "user",
    "methods": {},
    "version": 1
  }
}