{
  "contractName": "Escrow",
  "abi": [
    {
      "anonymous": false,
      "inputs": [
        {
          "indexed": false,
          "internalType": "address",
          "name": "buyer",
          "type": "address"
        },
        {
          "indexed": false,
          "internalType": "address",
          "name": "seller",
          "type": "address"
        },
        {
          "indexed": false,
          "internalType": "enum Escrow.State",
          "name": "status",
          "type": "uint8"
        }
      ],
      "name": "Accepted",
      "type": "event"
    },
    {
      "anonymous": false,
      "inputs": [
        {
          "indexed": false,
          "internalType": "address",
          "name": "buyer",
          "type": "address"
        },
        {
          "indexed": false,
          "internalType": "uint256",
          "name": "amount",
          "type": "uint256"
        },
        {
          "indexed": false,
          "internalType": "enum Escrow.State",
          "name": "status",
          "type": "uint8"
        }
      ],
      "name": "Funded",
      "type": "event"
    },
    {
      "anonymous": false,
      "inputs": [
        {
          "indexed": false,
          "internalType": "address",
          "name": "_from",
          "type": "address"
        },
        {
          "indexed": false,
          "internalType": "address",
          "name": "_destAddr",
          "type": "address"
        },
        {
          "indexed": false,
          "internalType": "uint256",
          "name": "amount_withdrawn",
          "type": "uint256"
        }
      ],
      "name": "ItsBeen6Months",
      "type": "event"
    },
    {
      "anonymous": false,
      "inputs": [
        {
          "indexed": false,
          "internalType": "address",
          "name": "buyer",
          "type": "address"
        },
        {
          "indexed": false,
          "internalType": "address",
          "name": "seller",
          "type": "address"
        },
        {
          "indexed": false,
          "internalType": "enum Escrow.State",
          "name": "status",
          "type": "uint8"
        },
        {
          "indexed": false,
          "internalType": "uint256",
          "name": "amnount_released",
          "type": "uint256"
        }
      ],
      "name": "ReleaseFund",
      "type": "event"
    },
    {
      "anonymous": false,
      "inputs": [
        {
          "indexed": false,
          "internalType": "address",
          "name": "_from",
          "type": "address"
        },
        {
          "indexed": false,
          "internalType": "address",
          "name": "_destAddr",
          "type": "address"
        }
      ],
      "name": "Withdraw",
      "type": "event"
    },
    {
      "inputs": [],
      "name": "OWNER",
      "outputs": [
        {
          "internalType": "address",
          "name": "",
          "type": "address"
        }
      ],
      "stateMutability": "view",
      "type": "function",
      "constant": true
    },
    {
      "inputs": [],
      "name": "buyer",
      "outputs": [
        {
          "internalType": "address payable",
          "name": "",
          "type": "address"
        }
      ],
      "stateMutability": "view",
      "type": "function",
      "constant": true
    },
    {
      "inputs": [],
      "name": "commission",
      "outputs": [
        {
          "internalType": "uint256",
          "name": "",
          "type": "uint256"
        }
      ],
      "stateMutability": "view",
      "type": "function",
      "constant": true
    },
    {
      "inputs": [],
      "name": "currState",
      "outputs": [
        {
          "internalType": "enum Escrow.State",
          "name": "",
          "type": "uint8"
        }
      ],
      "stateMutability": "view",
      "type": "function",
      "constant": true
    },
    {
      "inputs": [],
      "name": "depositTime",
      "outputs": [
        {
          "internalType": "uint256",
          "name": "",
          "type": "uint256"
        }
      ],
      "stateMutability": "view",
      "type": "function",
      "constant": true
    },
    {
      "inputs": [],
      "name": "depositedAmount",
      "outputs": [
        {
          "internalType": "uint256",
          "name": "",
          "type": "uint256"
        }
      ],
      "stateMutability": "view",
      "type": "function",
      "constant": true
    },
    {
      "inputs": [],
      "name": "seller",
      "outputs": [
        {
          "internalType": "address payable",
          "name": "",
          "type": "address"
        }
      ],
      "stateMutability": "view",
      "type": "function",
      "constant": true
    },
    {
      "inputs": [
        {
          "internalType": "address payable",
          "name": "_commissionWallet",
          "type": "address"
        },
        {
          "internalType": "uint256",
          "name": "_minimumEscrowAmount",
          "type": "uint256"
        },
        {
          "internalType": "uint256",
          "name": "_commission",
          "type": "uint256"
        }
      ],
      "name": "initialiser",
      "outputs": [],
      "stateMutability": "nonpayable",
      "type": "function"
    },
    {
      "inputs": [
        {
          "internalType": "address payable",
          "name": "_buyer",
          "type": "address"
        },
        {
          "internalType": "address payable",
          "name": "_seller",
          "type": "address"
        }
      ],
      "name": "escrowParties",
      "outputs": [],
      "stateMutability": "nonpayable",
      "type": "function"
    },
    {
      "inputs": [],
      "name": "deposit",
      "outputs": [],
      "stateMutability": "payable",
      "type": "function",
      "payable": true
    },
    {
      "inputs": [],
      "name": "acceptDeal",
      "outputs": [],
      "stateMutability": "nonpayable",
      "type": "function"
    },
    {
      "inputs": [],
      "name": "releaseFund",
      "outputs": [],
      "stateMutability": "nonpayable",
      "type": "function"
    },
    {
      "inputs": [],
      "name": "refund",
      "outputs": [],
      "stateMutability": "nonpayable",
      "type": "function"
    },
    {
      "inputs": [
        {
          "internalType": "uint256",
          "name": "comm_rate",
          "type": "uint256"
        }
      ],
      "name": "changeCommissionRate",
      "outputs": [],
      "stateMutability": "nonpayable",
      "type": "function"
    },
    {
      "inputs": [
        {
          "internalType": "address payable",
          "name": "ownerAccount",
          "type": "address"
        }
      ],
      "name": "itsbeen6Months",
      "outputs": [],
      "stateMutability": "payable",
      "type": "function",
      "payable": true
    },
    {
      "inputs": [],
      "name": "getCurrentState",
      "outputs": [
        {
          "internalType": "enum Escrow.State",
          "name": "",
          "type": "uint8"
        }
      ],
      "stateMutability": "view",
      "type": "function",
      "constant": true
    },
    {
      "inputs": [],
      "name": "getCommission",
      "outputs": [
        {
          "internalType": "uint256",
          "name": "",
          "type": "uint256"
        }
      ],
      "stateMutability": "view",
      "type": "function",
      "constant": true
    }
  ],
  "bytecode": "0x608060405234801561001057600080fd5b506123cb806100206000396000f3fe6080604052600436106100fe5760003560e01c80636642642a11610095578063afe0104311610064578063afe01043146102c5578063bb6d07b4146102f0578063d0e30db01461030c578063e148919114610316578063e65d6b4914610341576100fe565b80636642642a146102435780637150d8ae1461026c5780639f123ec114610297578063a2ff5539146102ae576100fe565b8063225f3c4f116100d1578063225f3c4f146101ad578063378aa701146101d6578063590e1ae3146102015780635e8a626e14610218576100fe565b806308551a5314610103578063117803e31461012e5780631cc1c450146101595780631d01364c14610182575b600080fd5b34801561010f57600080fd5b5061011861036c565b60405161012591906117d7565b60405180910390f35b34801561013a57600080fd5b50610143610392565b6040516101509190611813565b60405180910390f35b34801561016557600080fd5b50610180600480360381019061017b919061185f565b6103b8565b005b34801561018e57600080fd5b506101976106aa565b6040516101a491906118b8565b60405180910390f35b3480156101b957600080fd5b506101d460048036038101906101cf91906118ff565b6106b0565b005b3480156101e257600080fd5b506101eb610832565b6040516101f891906119c9565b60405180910390f35b34801561020d57600080fd5b50610216610849565b005b34801561022457600080fd5b5061022d610a9d565b60405161023a91906118b8565b60405180910390f35b34801561024f57600080fd5b5061026a600480360381019061026591906119e4565b610aa3565b005b34801561027857600080fd5b50610281610c1e565b60405161028e91906117d7565b60405180910390f35b3480156102a357600080fd5b506102ac610c44565b005b3480156102ba57600080fd5b506102c3610dd5565b005b3480156102d157600080fd5b506102da6111e7565b6040516102e791906119c9565b60405180910390f35b61030a60048036038101906103059190611a11565b6111fa565b005b61031461154b565b005b34801561032257600080fd5b5061032b611786565b60405161033891906118b8565b60405180910390f35b34801561034d57600080fd5b5061035661178c565b60405161036391906118b8565b60405180910390f35b600460009054906101000a900473ffffffffffffffffffffffffffffffffffffffff1681565b600260009054906101000a900473ffffffffffffffffffffffffffffffffffffffff1681565b600073ffffffffffffffffffffffffffffffffffffffff16600260009054906101000a900473ffffffffffffffffffffffffffffffffffffffff1673ffffffffffffffffffffffffffffffffffffffff1603610449576040517f08c379a000000000000000000000000000000000000000000000000000000000815260040161044090611ac1565b60405180910390fd5b8160008173ffffffffffffffffffffffffffffffffffffffff163b146104a4576040517f08c379a000000000000000000000000000000000000000000000000000000000815260040161049b90611b2d565b60405180910390fd5b8160008173ffffffffffffffffffffffffffffffffffffffff163b146104ff576040517f08c379a00000000000000000000000000000000000000000000000000000000081526004016104f690611b2d565b60405180910390fd5b8273ffffffffffffffffffffffffffffffffffffffff168473ffffffffffffffffffffffffffffffffffffffff16141580156105895750600560009054906101000a900473ffffffffffffffffffffffffffffffffffffffff1673ffffffffffffffffffffffffffffffffffffffff168473ffffffffffffffffffffffffffffffffffffffff1614155b80156105e35750600560009054906101000a900473ffffffffffffffffffffffffffffffffffffffff1673ffffffffffffffffffffffffffffffffffffffff168373ffffffffffffffffffffffffffffffffffffffff1614155b610622576040517f08c379a000000000000000000000000000000000000000000000000000000000815260040161061990611be5565b60405180910390fd5b83600360006101000a81548173ffffffffffffffffffffffffffffffffffffffff021916908373ffffffffffffffffffffffffffffffffffffffff16021790555082600460006101000a81548173ffffffffffffffffffffffffffffffffffffffff021916908373ffffffffffffffffffffffffffffffffffffffff16021790555050505050565b60085481565b8260008173ffffffffffffffffffffffffffffffffffffffff163b1461070b576040517f08c379a000000000000000000000000000000000000000000000000000000000815260040161070290611b2d565b60405180910390fd5b600073ffffffffffffffffffffffffffffffffffffffff16600260009054906101000a900473ffffffffffffffffffffffffffffffffffffffff1673ffffffffffffffffffffffffffffffffffffffff161461079c576040517f08c379a000000000000000000000000000000000000000000000000000000000815260040161079390611c77565b60405180910390fd5b83600560006101000a81548173ffffffffffffffffffffffffffffffffffffffff021916908373ffffffffffffffffffffffffffffffffffffffff160217905550826000819055508160018190555033600260006101000a81548173ffffffffffffffffffffffffffffffffffffffff021916908373ffffffffffffffffffffffffffffffffffffffff16021790555050505050565b6000600760009054906101000a900460ff16905090565b6001600581111561085d5761085c611952565b5b600760009054906101000a900460ff16600581111561087f5761087e611952565b5b146108bf576040517f08c379a00000000000000000000000000000000000000000000000000000000081526004016108b690611ce3565b60405180910390fd5b600360009054906101000a900473ffffffffffffffffffffffffffffffffffffffff1673ffffffffffffffffffffffffffffffffffffffff163373ffffffffffffffffffffffffffffffffffffffff161461094f576040517f08c379a000000000000000000000000000000000000000000000000000000000815260040161094690611d4f565b60405180910390fd5b600060646001546008546109639190611d9e565b61096d9190611e0f565b60085461097a9190611e40565b9050600060646001546008546109909190611d9e565b61099a9190611e0f565b9050600360009054906101000a900473ffffffffffffffffffffffffffffffffffffffff1673ffffffffffffffffffffffffffffffffffffffff166108fc839081150290604051600060405180830381858888f19350505050158015610a04573d6000803e3d6000fd5b50600560009054906101000a900473ffffffffffffffffffffffffffffffffffffffff1673ffffffffffffffffffffffffffffffffffffffff166108fc829081150290604051600060405180830381858888f19350505050158015610a6d573d6000803e3d6000fd5b506004600760006101000a81548160ff02191690836005811115610a9457610a93611952565b5b02179055505050565b60095481565b600073ffffffffffffffffffffffffffffffffffffffff16600260009054906101000a900473ffffffffffffffffffffffffffffffffffffffff1673ffffffffffffffffffffffffffffffffffffffff1603610b34576040517f08c379a0000000000000000000000000000000000000000000000000000000008152600401610b2b90611ac1565b60405180910390fd5b3373ffffffffffffffffffffffffffffffffffffffff16600260009054906101000a900473ffffffffffffffffffffffffffffffffffffffff1673ffffffffffffffffffffffffffffffffffffffff1614610bc4576040517f08c379a0000000000000000000000000000000000000000000000000000000008152600401610bbb90611ee6565b60405180910390fd5b60648111158015610bd55750600081115b610c14576040517f08c379a0000000000000000000000000000000000000000000000000000000008152600401610c0b90611f78565b60405180910390fd5b8060018190555050565b600360009054906101000a900473ffffffffffffffffffffffffffffffffffffffff1681565b60016005811115610c5857610c57611952565b5b600760009054906101000a900460ff166005811115610c7a57610c79611952565b5b14610cba576040517f08c379a0000000000000000000000000000000000000000000000000000000008152600401610cb190611ce3565b60405180910390fd5b600460009054906101000a900473ffffffffffffffffffffffffffffffffffffffff1673ffffffffffffffffffffffffffffffffffffffff163373ffffffffffffffffffffffffffffffffffffffff1614610d4a576040517f08c379a0000000000000000000000000000000000000000000000000000000008152600401610d4190611fe4565b60405180910390fd5b6002600760006101000a81548160ff02191690836005811115610d7057610d6f611952565b5b02179055507f256753117785cccff5787996ea7646b712ff88358432c84fdf3f5a8e75f8e1b7600360009054906101000a900473ffffffffffffffffffffffffffffffffffffffff16336002604051610dcb93929190612063565b60405180910390a1565b600360009054906101000a900473ffffffffffffffffffffffffffffffffffffffff1673ffffffffffffffffffffffffffffffffffffffff163373ffffffffffffffffffffffffffffffffffffffff161480610e7e5750600460009054906101000a900473ffffffffffffffffffffffffffffffffffffffff1673ffffffffffffffffffffffffffffffffffffffff163373ffffffffffffffffffffffffffffffffffffffff16145b610e8757600080fd5b60026005811115610e9b57610e9a611952565b5b600760009054906101000a900460ff166005811115610ebd57610ebc611952565b5b14610efd576040517f08c379a0000000000000000000000000000000000000000000000000000000008152600401610ef49061210c565b60405180910390fd5b60006064600154600854610f119190611d9e565b610f1b9190611e0f565b600854610f289190611e40565b905060006064600154600854610f3e9190611d9e565b610f489190611e0f565b9050600360009054906101000a900473ffffffffffffffffffffffffffffffffffffffff1673ffffffffffffffffffffffffffffffffffffffff163373ffffffffffffffffffffffffffffffffffffffff160361100d57600460009054906101000a900473ffffffffffffffffffffffffffffffffffffffff1673ffffffffffffffffffffffffffffffffffffffff166108fc839081150290604051600060405180830381858888f19350505050158015611007573d6000803e3d6000fd5b506110cd565b600460009054906101000a900473ffffffffffffffffffffffffffffffffffffffff1673ffffffffffffffffffffffffffffffffffffffff163373ffffffffffffffffffffffffffffffffffffffff16036110cc57600360009054906101000a900473ffffffffffffffffffffffffffffffffffffffff1673ffffffffffffffffffffffffffffffffffffffff166108fc839081150290604051600060405180830381858888f193505050501580156110ca573d6000803e3d6000fd5b505b5b600560009054906101000a900473ffffffffffffffffffffffffffffffffffffffff1673ffffffffffffffffffffffffffffffffffffffff166108fc829081150290604051600060405180830381858888f19350505050158015611135573d6000803e3d6000fd5b506003600760006101000a81548160ff0219169083600581111561115c5761115b611952565b5b02179055507f52a425e2be1df634499a25dae0dc59f7121b8a26b7107ee4ec864e7908a1c19d600360009054906101000a900473ffffffffffffffffffffffffffffffffffffffff16600460009054906101000a900473ffffffffffffffffffffffffffffffffffffffff166003856040516111db949392919061212c565b60405180910390a15050565b600760009054906101000a900460ff1681565b600073ffffffffffffffffffffffffffffffffffffffff16600260009054906101000a900473ffffffffffffffffffffffffffffffffffffffff1673ffffffffffffffffffffffffffffffffffffffff160361128b576040517f08c379a000000000000000000000000000000000000000000000000000000000815260040161128290611ac1565b60405180910390fd5b6002600581111561129f5761129e611952565b5b600760009054906101000a900460ff1660058111156112c1576112c0611952565b5b14611301576040517f08c379a00000000000000000000000000000000000000000000000000000000081526004016112f89061210c565b60405180910390fd5b3373ffffffffffffffffffffffffffffffffffffffff16600260009054906101000a900473ffffffffffffffffffffffffffffffffffffffff1673ffffffffffffffffffffffffffffffffffffffff1614611391576040517f08c379a000000000000000000000000000000000000000000000000000000000815260040161138890611ee6565b60405180910390fd5b3360008173ffffffffffffffffffffffffffffffffffffffff163b146113ec576040517f08c379a00000000000000000000000000000000000000000000000000000000081526004016113e390611b2d565b60405180910390fd5b8160008173ffffffffffffffffffffffffffffffffffffffff163b14611447576040517f08c379a000000000000000000000000000000000000000000000000000000000815260040161143e90611b2d565b60405180910390fd5b62eff100600954426114599190611e40565b11611499576040517f08c379a0000000000000000000000000000000000000000000000000000000008152600401611490906121e3565b60405180910390fd5b8273ffffffffffffffffffffffffffffffffffffffff166108fc479081150290604051600060405180830381858888f193505050501580156114df573d6000803e3d6000fd5b506005600760006101000a81548160ff0219169083600581111561150657611505611952565b5b02179055507f588f68fd41ec70abdc64718b0fcb715c772bb1114f6f2f8a606429973521022933843460405161153e93929190612203565b60405180910390a1505050565b600073ffffffffffffffffffffffffffffffffffffffff16600360009054906101000a900473ffffffffffffffffffffffffffffffffffffffff1673ffffffffffffffffffffffffffffffffffffffff16141580156115f95750600073ffffffffffffffffffffffffffffffffffffffff16600460009054906101000a900473ffffffffffffffffffffffffffffffffffffffff1673ffffffffffffffffffffffffffffffffffffffff1614155b611638576040517f08c379a000000000000000000000000000000000000000000000000000000000815260040161162f906122ac565b60405180910390fd5b60005434101561167d576040517f08c379a00000000000000000000000000000000000000000000000000000000081526004016116749061233e565b60405180910390fd5b600360009054906101000a900473ffffffffffffffffffffffffffffffffffffffff1673ffffffffffffffffffffffffffffffffffffffff163373ffffffffffffffffffffffffffffffffffffffff161461170d576040517f08c379a000000000000000000000000000000000000000000000000000000000815260040161170490611d4f565b60405180910390fd5b6001600760006101000a81548160ff0219169083600581111561173357611732611952565b5b0217905550346008819055507fe4fcf2b6cb277fd548df0434b5f8e8122d094df9b61978815ac64ead0d4500ff3360085460016040516117759392919061235e565b60405180910390a142600981905550565b60015481565b6000600154905090565b600073ffffffffffffffffffffffffffffffffffffffff82169050919050565b60006117c182611796565b9050919050565b6117d1816117b6565b82525050565b60006020820190506117ec60008301846117c8565b92915050565b60006117fd82611796565b9050919050565b61180d816117f2565b82525050565b60006020820190506118286000830184611804565b92915050565b600080fd5b61183c816117b6565b811461184757600080fd5b50565b60008135905061185981611833565b92915050565b600080604083850312156118765761187561182e565b5b60006118848582860161184a565b92505060206118958582860161184a565b9150509250929050565b6000819050919050565b6118b28161189f565b82525050565b60006020820190506118cd60008301846118a9565b92915050565b6118dc8161189f565b81146118e757600080fd5b50565b6000813590506118f9816118d3565b92915050565b6000806000606084860312156119185761191761182e565b5b60006119268682870161184a565b9350506020611937868287016118ea565b9250506040611948868287016118ea565b9150509250925092565b7f4e487b7100000000000000000000000000000000000000000000000000000000600052602160045260246000fd5b6006811061199257611991611952565b5b50565b60008190506119a382611981565b919050565b60006119b382611995565b9050919050565b6119c3816119a8565b82525050565b60006020820190506119de60008301846119ba565b92915050565b6000602082840312156119fa576119f961182e565b5b6000611a08848285016118ea565b91505092915050565b600060208284031215611a2757611a2661182e565b5b6000611a358482850161184a565b91505092915050565b600082825260208201905092915050565b7f546865206465616c20686173206e6f74206265656e20696e697469616c69736560008201527f6420627920746865206f776e6572207965740000000000000000000000000000602082015250565b6000611aab603283611a3e565b9150611ab682611a4f565b604082019050919050565b60006020820190508181036000830152611ada81611a9e565b9050919050565b7f5468652077616c6c65742061646472657373206973206e6f742076616c696400600082015250565b6000611b17601f83611a3e565b9150611b2282611ae1565b602082019050919050565b60006020820190508181036000830152611b4681611b0a565b9050919050565b7f54686520627579657220616e642073656c6c65722077616c6c65742063616e6e60008201527f6f742062652073616d65206f7220657175616c20746f2074686520636f6d6d6960208201527f7373696f6e2077616c6c65740000000000000000000000000000000000000000604082015250565b6000611bcf604c83611a3e565b9150611bda82611b4d565b606082019050919050565b60006020820190508181036000830152611bfe81611bc2565b9050919050565b7f596f752063616e6e6f7420696e697469616c697a652061206465616c2074776960008201527f6365210000000000000000000000000000000000000000000000000000000000602082015250565b6000611c61602383611a3e565b9150611c6c82611c05565b604082019050919050565b60006020820190508181036000830152611c9081611c54565b9050919050565b7f457363726f7720686173206e6f74206265656e2066756e646564207965740000600082015250565b6000611ccd601e83611a3e565b9150611cd882611c97565b602082019050919050565b60006020820190508181036000830152611cfc81611cc0565b9050919050565b7f4f6e6c792062757965722063616e2063616c6c2074686973206d6574686f6400600082015250565b6000611d39601f83611a3e565b9150611d4482611d03565b602082019050919050565b60006020820190508181036000830152611d6881611d2c565b9050919050565b7f4e487b7100000000000000000000000000000000000000000000000000000000600052601160045260246000fd5b6000611da98261189f565b9150611db48361189f565b9250828202611dc28161189f565b91508282048414831517611dd957611dd8611d6f565b5b5092915050565b7f4e487b7100000000000000000000000000000000000000000000000000000000600052601260045260246000fd5b6000611e1a8261189f565b9150611e258361189f565b925082611e3557611e34611de0565b5b828204905092915050565b6000611e4b8261189f565b9150611e568361189f565b9250828203905081811115611e6e57611e6d611d6f565b5b92915050565b7f4f6e6c7920636f6e7472616374206f776e65722063616e2063616c6c2074686960008201527f73206d6574686f64210000000000000000000000000000000000000000000000602082015250565b6000611ed0602983611a3e565b9150611edb82611e74565b604082019050919050565b60006020820190508181036000830152611eff81611ec3565b9050919050565b7f636f6d6d697373696f6e20726174652063616e6e6f74206265206d6f7265207460008201527f68616e2031303000000000000000000000000000000000000000000000000000602082015250565b6000611f62602783611a3e565b9150611f6d82611f06565b604082019050919050565b60006020820190508181036000830152611f9181611f55565b9050919050565b7f4f6e6c792053656c6c65722063616e2063616c6c2074686973206d6574686f64600082015250565b6000611fce602083611a3e565b9150611fd982611f98565b602082019050919050565b60006020820190508181036000830152611ffd81611fc1565b9050919050565b6000819050919050565b600061202961202461201f84611796565b612004565b611796565b9050919050565b600061203b8261200e565b9050919050565b600061204d82612030565b9050919050565b61205d81612042565b82525050565b60006060820190506120786000830186612054565b6120856020830185611804565b61209260408301846119ba565b949350505050565b7f53656c6c657220686173206e6f7420616363657074656420746865206465616c60008201527f2079657400000000000000000000000000000000000000000000000000000000602082015250565b60006120f6602483611a3e565b91506121018261209a565b604082019050919050565b60006020820190508181036000830152612125816120e9565b9050919050565b60006080820190506121416000830187612054565b61214e6020830186612054565b61215b60408301856119ba565b61216860608301846118a9565b95945050505050565b7f546865206d6f6e65792063616e206f6e6c792062652077697468647261776e2060008201527f61667465722036206d6f6e746873000000000000000000000000000000000000602082015250565b60006121cd602e83611a3e565b91506121d882612171565b604082019050919050565b600060208201905081810360008301526121fc816121c0565b9050919050565b60006060820190506122186000830186611804565b6122256020830185612054565b61223260408301846118a9565b949350505050565b7f546865206465616c20686173206e6f74206265656e20696e697469616c69736560008201527f6420796574210000000000000000000000000000000000000000000000000000602082015250565b6000612296602683611a3e565b91506122a18261223a565b604082019050919050565b600060208201905081810360008301526122c581612289565b9050919050565b7f4d696e696d756d20616d6f756e7420746f20657363726f7720697320302e303060008201527f3120424e42000000000000000000000000000000000000000000000000000000602082015250565b6000612328602583611a3e565b9150612333826122cc565b604082019050919050565b600060208201905081810360008301526123578161231b565b9050919050565b60006060820190506123736000830186611804565b61238060208301856118a9565b61238d60408301846119ba565b94935050505056fea26469706673582212203bb4f72017abc980e7f46253a105e01c39d419d2d209d19612e14e4fa621b39664736f6c63430008110033",
  "immutableReferences": {},
  "source": "// SPDX-License-Identifier: MIT\npragma solidity >=0.8.0;\n\ncontract Escrow {\n    uint256 private minimumEscrowAmount;\n    uint256 public commission;\n\n    enum State {\n        INIT,\n        FUNDED,\n        ACCEPT_DEAL,\n        RELEASE_FUND,\n        REFUND,\n        WITHDRAWED_BY_OWNER\n    }\n\n    address public OWNER;\n    address payable public buyer;\n    address payable public seller;\n    address payable private commissionWallet;\n    uint256 amount;\n    State public currState;\n    uint256 public depositedAmount;\n    uint256 public depositTime;\n\n    event Funded(address buyer, uint256 amount, State status);\n    event Accepted(address buyer, address seller, State status);\n    event ReleaseFund(\n        address buyer,\n        address seller,\n        State status,\n        uint256 amnount_released\n    );\n    event Withdraw(address _from, address _destAddr);\n    event ItsBeen6Months(\n        address _from,\n        address _destAddr,\n        uint256 amount_withdrawn\n    );\n\n    modifier onlyBuyer() {\n        require(msg.sender == buyer, \"Only buyer can call this method\");\n        _;\n    }\n\n    modifier onlySeller() {\n        require(msg.sender == seller, \"Only Seller can call this method\");\n        _;\n    }\n\n    modifier init_by_owner() {\n        require(\n            OWNER != address(0x0),\n            \"The deal has not been initialised by the owner yet\"\n        );\n        _;\n    }\n\n    modifier initialising_Deal() {\n        require(OWNER == address(0x0), \"You cannot initialize a deal twice!\");\n        _;\n    }\n\n    modifier buyerOrSeller() {\n        require(msg.sender == buyer || msg.sender == seller);\n        _;\n    }\n\n    modifier onlyOwner() {\n        require(\n            OWNER == msg.sender,\n            \"Only contract owner can call this method!\"\n        );\n        _;\n    }\n\n    modifier stateFunded() {\n        require(currState == State.FUNDED, \"Escrow has not been funded yet\");\n        _;\n    }\n\n    modifier stateAccepted() {\n        require(\n            currState == State.ACCEPT_DEAL,\n            \"Seller has not accepted the deal yet\"\n        );\n        _;\n    }\n\n    modifier minimumAmount() {\n        require(\n            msg.value >= minimumEscrowAmount,\n            \"Minimum amount to escrow is 0.001 BNB\"\n        );\n        _;\n    }\n\n    modifier isValidAddress(address addr) {\n        require(addr.code.length == 0, \"The wallet address is not valid\");\n        _;\n    }\n\n    modifier deal_INIT() {\n        require(\n            buyer != address(0x0) && seller != address(0x0),\n            \"The deal has not been initialised yet!\"\n        );\n        _;\n    }\n\n    function initialiser(\n        address payable _commissionWallet,\n        uint256 _minimumEscrowAmount,\n        uint256 _commission\n    ) public isValidAddress(_commissionWallet) initialising_Deal {\n        commissionWallet = _commissionWallet;\n        minimumEscrowAmount = _minimumEscrowAmount;\n        commission = _commission;\n        OWNER = msg.sender;\n    }\n\n    function escrowParties(address payable _buyer, address payable _seller)\n        external\n        init_by_owner\n        isValidAddress(_buyer)\n        isValidAddress(_seller)\n    {\n        require(_buyer != _seller && _buyer != commissionWallet && _seller != commissionWallet , \"The buyer and seller wallet cannot be same or equal to the commission wallet\");\n        buyer = _buyer;\n        seller = _seller;\n    }\n\n    function deposit() external payable deal_INIT minimumAmount onlyBuyer {\n        currState = State.FUNDED;\n        depositedAmount = msg.value;\n        emit Funded(msg.sender, depositedAmount, State.FUNDED);\n        depositTime = block.timestamp;\n    }\n\n    function acceptDeal() external stateFunded onlySeller {\n        currState = State.ACCEPT_DEAL;\n        emit Accepted(buyer, msg.sender, State.ACCEPT_DEAL);\n    }\n\n    function releaseFund() external buyerOrSeller stateAccepted {\n        uint256 amount_after_commission = depositedAmount -\n            ((depositedAmount * commission) / 100);\n        uint256 commissionAmount = (depositedAmount * commission) / 100;\n\n        if (msg.sender == buyer) {\n            seller.transfer(amount_after_commission);\n        } else if (msg.sender == seller) {\n            buyer.transfer(amount_after_commission);\n        }\n        commissionWallet.transfer(commissionAmount);\n        currState = State.RELEASE_FUND;\n        emit ReleaseFund(\n            buyer,\n            seller,\n            State.RELEASE_FUND,\n            amount_after_commission\n        );\n    }\n\n    function refund() external stateFunded onlyBuyer {\n        uint256 amount_after_commission = depositedAmount -\n            ((depositedAmount * commission) / 100);\n        uint256 commAmount = (depositedAmount * commission) / 100;\n        buyer.transfer(amount_after_commission);\n        commissionWallet.transfer(commAmount);\n        currState = State.REFUND;\n    }\n\n    function changeCommissionRate(uint256 comm_rate)\n        public\n        init_by_owner\n        onlyOwner\n    {\n        require(\n            comm_rate <= 100 && comm_rate > 0,\n            \"commission rate cannot be more than 100\"\n        );\n        commission = comm_rate;\n    }\n\n    function itsbeen6Months(address payable ownerAccount)\n        external\n        payable\n        init_by_owner\n        stateAccepted\n        onlyOwner\n        isValidAddress(msg.sender)\n        isValidAddress(ownerAccount)\n    {\n        require(\n            block.timestamp - depositTime > 26 weeks,\n            \"The money can only be withdrawn after 6 months\"\n        );\n        ownerAccount.transfer(address(this).balance);\n        currState = State.WITHDRAWED_BY_OWNER;\n        emit ItsBeen6Months(msg.sender, ownerAccount, msg.value);\n    }\n\n    function getCurrentState() public view returns (State) {\n        return currState;\n    }\n\n    function getCommission() public view returns (uint256) {\n        return commission;\n    }\n}\n",
  "sourcePath": "/Users/shivisharma/Desktop/smartcontracts/contracts/escrow.sol",
  "compiler": {
    "name": "solc",
    "version": "0.8.17+commit.8df45f5f.Emscripten.clang"
  },
  "schemaVersion": "3.4.9",
  "updatedAt": "2022-09-16T09:10:08.831Z",
  "networkType": "ethereum",
  "devdoc": {
    "kind": "dev",
    "methods": {},
    "version": 1
  },
  "userdoc": {
    "kind": "user",
    "methods": {},
    "version": 1
  }
}